:100000000C942A000C9447000C9447000C94470071
:100010000C94290E0C945C0E0C945D0D0C94900DB8
:100020000C94C30D0C94F60D0C94F70C0C942A0D43
:100030000C9447000C9447000C9447000C94470024
:100040000C9447000C9447000C9447000C94470014
:100050000C94470011241FBECFE5D8E0DEBFCDBF12
:1000600011E0A0E6B0E0E0E8F0E402C005900D92F7
:10007000AE36B107D9F711E0AEE6B1E001C01D928E
:10008000A238B107E1F70E944E1F0C943E200C9459
:100090000000EF92FF920F931F937B018C0120E0F1
:1000A00030E040E05FE40E94490388238CF0C801FF
:1000B000B70120E030E040E05FE40E94C1010E940F
:1000C000A9039B01AC01205030404040504806C07D
:1000D000C801B7010E94A9039B01AC01B901CA0183
:1000E0001F910F91FF90EF900895A0E0B0E0EBE733
:1000F000F0E00C940720DC012B01FA019C91923076
:1001000008F439C1EB018881823008F433C194309E
:1001100069F4843009F02FC111969C91119789815F
:10012000981709F428C1A0E6B0E025C1843009F48D
:1001300021C18230A9F4923009F01DC19A01AD01AC
:1001400088E0EA010990AE01E90109929E0181501F
:10015000C1F7E201898111969C918923818308C1AD
:10016000923009F407C112962D903C901397EB0141
:100170008A819B811496AD90BD90CD90DC901797AD
:10018000EC80FD800E811F819101281B390BB90184
:1001900037FF04C066277727621B730B6032710537
:1001A0000CF061C0121613066CF537014801062EDB
:1001B00004C096948794779467940A94D2F721E0C8
:1001C00030E040E050E004C0220F331F441F551FB1
:1001D0006A95D2F721503040404050402E213F21B7
:1001E00040235123211531054105510521F021E01E
:1001F00030E040E050E079018A01E628F72808293C
:1002000019293CC0232BD1F1260E371E350146019A
:10021000062E04C096948794779467940A94D2F734
:1002200021E030E040E050E004C0220F331F441FC3
:10023000551F6A95D2F721503040404050402A2146
:100240003B214C215D21211531054105510521F04E
:1002500021E030E040E050E059016A01A628B728CB
:10026000C828D9280BC0821593052CF01C01AA249C
:10027000BB24650103C0EE24FF24870111969C91E5
:10028000D20111968C91981709F445C0992339F041
:10029000A80197012A193B094C095D0906C0A6016E
:1002A00095012E193F09400B510B57FD08C01182D3
:1002B0003382228224833583468357831DC081E0A5
:1002C00081833382228288279927DC01821B930B4A
:1002D000A40BB50B84839583A683B7830DC0220F2F
:1002E000331F441F551F24833583468357838281E0
:1002F000938101979383828324813581468157813D
:10030000DA01C9010197A109B1098F5F9F4FAF4F72
:10031000BF4328F30BC0918333822282EA0CFB1C7B
:100320000C1D1D1DE482F5820683178383E0808304
:10033000248135814681578157FF1AC0C901AA27F8
:1003400097FDA095BA2F81709070A070B0705695EF
:10035000479537952795822B932BA42BB52B848318
:100360009583A683B7838281938101969383828349
:10037000DF0101C0D201CD01CDB7DEB7E2E10C94BF
:100380002320A0E2B0E0E7ECF1E00C9413206983B5
:100390007A838B839C832D833E834F835887E9E048
:1003A000EE2EF12CEC0EFD1ECE010196B7010E943F
:1003B0009A058E010F5E1F4FCE010596B8010E946F
:1003C0009A058A8991E089278A8BC701B801AE0115
:1003D000475E5F4F0E9475000E94C504A096E6E04C
:1003E0000C942F20A0E2B0E0E8EFF1E00C94132091
:1003F00069837A838B839C832D833E834F835887C5
:10040000F9E0EF2EF12CEC0EFD1ECE010196B701A6
:100410000E949A058E010F5E1F4FCE010596B8010E
:100420000E949A05C701B801AE01475E5F4F0E9466
:1004300075000E94C504A096E6E00C942F20A0E26F
:10044000B0E0E5E2F2E00C94072069837A838B83C5
:100450009C832D833E834F835887CE010196BE0136
:10046000675F7F4F0E949A05CE010596BE016F5EC1
:100470007F4F0E949A059985923088F08989823051
:10048000C8F0943019F4823051F404C0843029F457
:10049000923081F480E690E0C6C0923049F420E0CA
:1004A0009A858A89981321E02A87CE010996BBC0D4
:1004B000823049F420E09A858A89981321E02A8BBA
:1004C000CE014196B0C02D843E844F8458886D88FB
:1004D0007E888F88988CEE24FF248701AA24BB2471
:1004E000650140E050E060E070E0E0E0F0E0C10174
:1004F00081709070892BE9F0E60CF71C081D191D1E
:100500009A01AB012A0D3B1D4C1D5D1D80E090E062
:10051000A0E0B0E0E614F7040805190520F481E036
:1005200090E0A0E0B0E0BA01A901480F591F6A1F8E
:100530007B1FAA0CBB1CCC1CDD1C97FE08C081E0F5
:1005400090E0A0E0B0E0A82AB92ACA2ADB2A3196B6
:10055000E032F10549F0660C771C881C991C569412
:10056000479437942794C3CFFA85EA892B893C892D
:100570008B859C85280F391F2E5F3F4F17C0CA01FE
:1005800081709070892B61F016950795F794E79428
:1005900080E090E0A0E0B0E8E82AF92A0A2B1B2BC3
:1005A00076956795579547952F5F3F4F77FDE7CF36
:1005B0000CC0440F551F661F771F17FD4160EE0CDE
:1005C000FF1C001F111F21503040403090E05907A0
:1005D00090E0690790E4790760F32B8F3C8FDB0193
:1005E000CA018F779070A070B07080349105A1051A
:1005F000B10561F447FD0AC0E114F10401051105DC
:1006000029F0405C5F4F6F4F7F4F40781A8EFE1786
:1006100011F081E08A8F4D8F5E8F6F8F78A383E01A
:10062000898FCE0149960E94C504A096E2E10C9400
:100630002320A8E1B0E0EFE1F3E00C9413206983FC
:100640007A838B839C832D833E834F83588789E0F5
:10065000E82EF12CEC0EFD1ECE010196B7010E9492
:100660009A058E010F5E1F4FCE010596B8010E94BC
:100670009A058985823040F08989823028F0C70147
:10068000B8010E94120601C08FEF6896E6E00C9454
:100690002F20A8E1B0E0EFE4F3E00C94132069838D
:1006A0007A838B839C832D833E834F83588789E095
:1006B000E82EF12CEC0EFD1ECE010196B7010E9432
:1006C0009A058E010F5E1F4FCE010596B8010E945C
:1006D0009A058985823040F08989823028F0C701E7
:1006E000B8010E94120601C08FEF6896E6E00C94F4
:1006F0002F20A8E1B0E0EFE7F3E00C94132069832A
:100700007A838B839C832D833E834F83588789E034
:10071000E82EF12CEC0EFD1ECE010196B7010E94D1
:100720009A058E010F5E1F4FCE010596B8010E94FB
:100730009A058985823040F08989823028F0C70186
:10074000B8010E94120601C081E06896E6E00C94B0
:100750002F20ACE0B0E0EFEAF3E00C9417206983BF
:100760007A838B839C83CE010196BE016B5F7F4FA2
:100770000E949A058D81823061F1823050F184307F
:1007800021F48E81882351F12EC02F81388537FDC9
:1007900020C06E812F3131051CF06623F9F023C093
:1007A0008EE190E0821B930B29853A854B855C8511
:1007B00004C056954795379527958A95D2F76623B5
:1007C000B1F050954095309521953F4F4F4F5F4F79
:1007D0000EC020E030E040E050E009C02FEF3FEFD6
:1007E0004FEF5FE704C020E030E040E050E8B9019F
:1007F000CA012C96E2E00C943320A8E0B0E0E3E0DC
:10080000F4E00C940F207B018C01611571058105CA
:10081000910519F482E0898360C083E089838EE1C9
:10082000C82ED12CDC82CB82ED82FE820F8318870A
:10083000C801B7010E947604FC013197F7FF3BC065
:10084000222733272E1B3F0B57016801022E04C0BD
:10085000D694C794B794A7940A94D2F740E050E096
:1008600060E070E081E090E0A0E0B0E004C0880FBC
:10087000991FAA1FBB1F2A95D2F70197A109B10999
:100880008E219F21A023B1230097A105B10521F05E
:1008900041E050E060E070E04A295B296C297D2945
:1008A0004D835E836F8378878EE190E08E1B9F0B74
:1008B0009C838B8312C0309781F00E2E04C0EE0C07
:1008C000FF1C001F111F0A94D2F7ED82FE820F83D6
:1008D0001887CE1ADF0ADC82CB821A82CE010196FB
:1008E0000E94C5042896EAE00C942B20EF92FF9218
:1008F0000F931F937B018C0180E0E81680E0F806DF
:1009000081E0080780E0180788F48FEFE816F1040B
:100910000105110531F028F088E090E0A0E0B0E09A
:1009200017C080E090E0A0E0B0E012C080E0E816E0
:1009300080E0F80680E0080781E0180728F088E1E9
:1009400090E0A0E0B0E004C080E190E0A0E0B0E082
:1009500020E230E040E050E0281B390B4A0B5B0BF3
:1009600004C016950795F794E7948A95D2F7F70196
:10097000E859FF4F8081281B310941095109C901FC
:100980001F910F91FF90EF900895DF92EF92FF92E9
:100990000F931F93FC01E480F58006811781D180BD
:1009A0008081823048F480E090E0A0E1B0E0E82A65
:1009B000F92A0A2B1B2BA5C0843009F49FC0823072
:1009C00021F4EE24FF24870105C0E114F1040105A0
:1009D000110519F4E0E0F0E096C0628173819FEFA9
:1009E000623879070CF05BC022E83FEF261B370B1B
:1009F0002A3131052CF020E030E040E050E02AC000
:100A0000B801A701022E04C07695679557954795C2
:100A10000A94D2F781E090E0A0E0B0E004C0880F33
:100A2000991FAA1FBB1F2A95D2F70197A109B109E7
:100A30008E219F21A023B1230097A105B10521F0AC
:100A400081E090E0A0E0B0E09A01AB01282B392BC7
:100A50004A2B5B2BDA01C9018F779070A070B070C0
:100A600080349105A105B10539F427FF09C0205C48
:100A70003F4F4F4F5F4F04C0215C3F4F4F4F5F4F81
:100A8000E0E0F0E02030A0E03A07A0E04A07A0E470
:100A90005A0710F0E1E0F0E079018A0127C06038E0
:100AA000710564F5FB01E158FF4FD801C7018F774D
:100AB0009070A070B07080349105A105B10539F433
:100AC000E7FE0DC080E490E0A0E0B0E004C08FE35A
:100AD00090E0A0E0B0E0E80EF91E0A1F1B1F17FF10
:100AE00005C016950795F794E794319687E016951B
:100AF0000795F794E7948A95D1F705C0EE24FF2473
:100B00008701EFEFF0E06E2F679566276795902FCE
:100B10009F77D794DD24D7948E2F8695492F462B27
:100B2000582F5D29B701CA011F910F91FF90EF90D7
:100B3000DF900895FC01DB01408151812281622F09
:100B40006F7770E0221F2227221F9381892F880F41
:100B5000822B282F30E0991F9927991F11969C937B
:100B6000119721153105A9F541155105610571054B
:100B700011F482E037C082E89FEF13969C938E9326
:100B800012979A01AB0167E0220F331F441F551FD4
:100B90006A95D1F783E08C930DC0220F331F441F59
:100BA000551F12968D919C911397019713969C93C4
:100BB0008E931297203080E0380780E0480780E469
:100BC000580758F314962D933D934D935C931797C4
:100BD00008952F3F310579F44115510561057105DF
:100BE00019F484E08C93089564FF03C081E08C9332
:100BF00012C01C9210C02F57304013963C932E9376
:100C0000129783E08C9387E0440F551F661F771F70
:100C10008A95D1F7706414964D935D936D937C9390
:100C2000179708951F93DC01FB019C91923008F403
:100C300047C08081823008F443C0943051F411964B
:100C40001C91843099F58181682F70E0611B7109D6
:100C50003FC0843021F0923031F48230B9F181818B
:100C6000882389F12DC011961C9111978230F1F0E3
:100C700081811817D9F412962D913C911397828196
:100C800093818217930794F028173907BCF01496C4
:100C90008D919D910D90BC91A02D2481358146812F
:100CA0005781281739074A075B0718F4112341F0C9
:100CB0000AC082179307A407B50740F4112319F05F
:100CC00061E070E005C06FEF7FEF02C060E070E0B0
:100CD000CB011F910895DF93CF93CDB7DEB729974E
:100CE0000FB6F894DEBF0FBECDBF9D838C831B82F1
:100CF0001A821982EC81FD818081282F30E03987AA
:100D000028878885998581309105D1F02885398596
:100D1000223031052CF488859985009761F01FC039
:100D2000288539852230310581F088859985833081
:100D3000910581F014C08AE390E09A83898311C001
:100D400087E390E09A8389830CC084E390E09A83E0
:100D5000898307C081E390E09A83898302C081E0A0
:100D60008B83EC81FD818281282F30E03F832E83AD
:100D70008E819F81009731F02E813F812F3F310579
:100D800071F018C0E981FA818081982FEC81FD8192
:100D9000818180958923E981FA8180830DC0E98171
:100DA000FA819081EC81FD818181892BE981FA8131
:100DB000808302C081E08B838B8129960FB6F894E3
:100DC000DEBF0FBECDBFCF91DF910895DF93CF93EC
:100DD000CDB7DEB72A970FB6F894DEBF0FBECDBFF2
:100DE0008C836D834E831B821A8219828C81282FFB
:100DF00030E03A87298789859A8581309105D1F03D
:100E000029853A85223031052CF489859A85009709
:100E100061F01FC029853A852230310581F089852E
:100E20009A858330910581F014C08BE390E09A831A
:100E3000898311C088E390E09A8389830CC085E39D
:100E400090E09A83898307C082E390E09A83898344
:100E500002C081E08B838E81282F30E038872F837A
:100E60008F819885009731F02F8138852F3F31058C
:100E700061F014C0E981FA818081982F8D8180957D
:100E80008923E981FA8180830BC0E981FA8190810D
:100E90008D81892BE981FA81808302C081E08B8377
:100EA0008B812A960FB6F894DEBF0FBECDBFCF91CF
:100EB000DF910895DF93CF93CDB7DEB727970FB6B5
:100EC000F894DEBF0FBECDBF8A836B835D834C83F6
:100ED00019828A81282F30E03F832E838E819F8163
:100EE00081309105F1F02E813F81223031052CF4C3
:100EF0008E819F81009761F02FC02E813F8122302B
:100F00003105C1F08E819F8183309105E1F024C0CD
:100F1000E9E3F0E090818B818923EC81FD8180837E
:100F20001DC0E6E3F0E090818B818923EC81FD8197
:100F3000808314C0E3E3F0E090818B818923EC810E
:100F4000FD8180830BC0E0E3F0E090818B818923F9
:100F5000EC81FD81808302C081E0898389812796AD
:100F60000FB6F894DEBF0FBECDBFCF91DF910895CD
:100F7000DF93CF9300D000D00F92CDB7DEB78A8336
:100F80006B8319828A81282F30E03D832C838C81EA
:100F90009D8181309105F1F02C813D812230310518
:100FA0002CF48C819D81009761F02FC02C813D81B4
:100FB00022303105C1F08C819D8183309105E1F0B3
:100FC00024C0ABE3B0E0EBE3F0E090818B818927B4
:100FD0008C931DC0A8E3B0E0E8E3F0E090818B8142
:100FE00089278C9314C0A5E3B0E0E5E3F0E090819D
:100FF0008B8189278C930BC0A2E3B0E0E2E3F0E0A1
:1010000090818B8189278C9302C081E089838981BB
:101010000F900F900F900F900F90CF91DF91089548
:10102000DF93CF9300D00F92CDB7DEB79B838A8337
:101030001982A7E3B0E0E7E3F0E080818B7F8C9337
:10104000A8E3B0E0E8E3F0E0808184608C93EA817B
:10105000FB818181882F90E082309105E9F4A5E43D
:10106000B0E0E5E4F0E0808180688C93A5E4B0E036
:10107000E5E4F0E080818F7B8C93A5E4B0E0E5E4CB
:10108000F0E08081877F8C93A5E4B0E0E5E4F0E0B8
:10109000808187608C9302C081E0898389810F9071
:1010A0000F900F90CF91DF910895DF93CF93CDB73D
:1010B000DEB727970FB6F894DEBF0FBECDBF8A8389
:1010C0006B835D834C8319828B81282F30E03F83B3
:1010D0002E838E819F8181309105B9F12E813F81D0
:1010E0002230310531F08E819F81009709F459C07B
:1010F0008DC0E6E3F0E08081882F90E084709070EE
:101100000097B9F3E6E3F0E08081882F90E08470E7
:1011100090700097B9F7E4E4F0E01082E6E3F0E0C5
:101120008081882F90E0847090700097B9F3E4E498
:10113000F0E08081882F90E0A0E0B0E0EC81FD81BC
:1011400080839183A283B38363C0E6E3F0E0808170
:10115000882F90E0847090700097B9F7E6E3F0E094
:101160008081882F90E0847090700097B9F3E4E458
:10117000F0E01082E6E3F0E08081882F90E0847058
:1011800090700097B9F7E4E4F0E08081882F90E058
:10119000A0E0B0E0EC81FD8180839183A283B383E2
:1011A00037C0E6E3F0E08081882F90E08470907093
:1011B0000097B9F7E6E3F0E08081882F90E0847033
:1011C00090700097B9F3E4E4F0E01082E6E3F0E019
:1011D0008081882F90E0847090700097B9F7E6E3E3
:1011E000F0E08081882F90E0847090700097B9F3D0
:1011F000E4E4F0E08081882F90E0A0E0B0E0EC81B2
:10120000FD8180839183A283B38302C081E08983BF
:10121000898127960FB6F894DEBF0FBECDBFCF9160
:10122000DF910895DF93CF9300D000D00F92CDB718
:10123000DEB79B838A831982AFE4B0E0EFE4F0E08D
:1012400080818B7F8C93AFE4B0E0EFE4F0E08081AD
:10125000877F8C93AFE4B0E0EFE4F0E080818E7F95
:101260008C93AFE4B0E0EFE4F0E0808182608C9397
:10127000AEE4B0E0EEE4F0E0808188608C93AEE410
:10128000B0E0EEE4F0E0808180618C93EA81FB8144
:101290008081282F30E03D832C838C819D8182309A
:1012A000910509F12C813D812330310591F18C812B
:1012B0009D818130910509F050C0AFE4B0E0EFE4CA
:1012C000F0E0808180648C93AFE4B0E0EFE4F0E084
:1012D000808180688C93A1E3B0E0E1E3F0E080815D
:1012E00080628C933CC0AFE4B0E0EFE4F0E080813A
:1012F00080618C93AFE4B0E0EFE4F0E08081806245
:101300008C93A1E3B0E0E1E3F0E0808180618C9315
:1013100026C0AFE4B0E0EFE4F0E0808180648C931D
:10132000AFE4B0E0EFE4F0E0808180688C93AFE45C
:10133000B0E0EFE4F0E0808180618C93AFE4B0E056
:10134000EFE4F0E0808180628C93A1E3B0E0E1E320
:10135000F0E0808180638C9302C081E08983ECE4BB
:10136000F0E01182108289810F900F900F900F9002
:101370000F90CF91DF910895EF92FF920F931F93FB
:10138000DF93CF93CDB7DEB729970FB6F894DEBFC2
:101390000FBECDBF8A836B832C833D834E835F83D7
:1013A000198294E68B81292F281B822F8B838C81B5
:1013B0009D81AE81BF818C3231E0930730E0A3077D
:1013C00030E0B307E0F006E410E080E094E2A4EF40
:1013D000B0E02C813D814E815F81BC01CD010E9436
:1013E000CA1FDA01C901F80191838083AEE4B0E03D
:1013F000EEE4F0E08081887F81608C9371C08C8105
:101400009D81AE81BF8188329105A105B10550F162
:1014100006E410E08C819D81AE81BF81880F991F09
:10142000AA1FBB1F880F991FAA1FBB1F880F991FD8
:10143000AA1FBB1F9C01AD0180E094E2A4EFB0E0C5
:10144000BC01CD010E94CA1FDA01C901F8019183D4
:101450008083AEE4B0E0EEE4F0E08081887F8260DB
:101460008C933EC08C819D81AE81BF81843091057B
:10147000A105B105A8F106E410E08C819D81AE8143
:10148000BF81880F991FAA1FBB1F880F991FAA1F12
:10149000BB1F880F991FAA1FBB1F880F991FAA1F68
:1014A000BB1F880F991FAA1FBB1F880F991FAA1F58
:1014B000BB1F9C01AD0180E094E2A4EFB0E0BC0151
:1014C000CD010E94CA1FDA01C901F801918380830E
:1014D000AEE4B0E0EEE4F0E08081887F83608C933E
:1014E0008A81282F30E0398728878885998582303E
:1014F0009105C1F1E885F985E330F10509F45EC095
:10150000288539852130310509F0AFC0AFE4B0E05E
:10151000EFE4F0E0808180648C93AFE4B0E0EFE42E
:10152000F0E0808180688C930F2EFAE4EF2EFF2488
:10153000F02D8B81082F10E0E6E4F0E080819181AE
:1015400024E630E0B9010E94B61FCB01FC010E9FDA
:10155000C0010F9F900D1E9F900D1124F7019183E4
:10156000808385C0AFE4B0E0EFE4F0E0808180618B
:101570008C93AFE4B0E0EFE4F0E0808180628C9384
:101580000F2EF8E4EF2EFF24F02D8B81082F10E0B2
:10159000E6E4F0E08081918124E630E0B9010E9428
:1015A000B61FCB019C01029FC001039F900D129FAB
:1015B000900D1124F7019183808359C0AFE4B0E00E
:1015C000EFE4F0E0808180648C93AFE4B0E0EFE47E
:1015D000F0E0808180688C93AFE4B0E0EFE4F0E06D
:1015E000808180618C93AFE4B0E0EFE4F0E0808133
:1015F00080628C930F2EFAE4EF2EFF24F02D8B8166
:10160000082F10E0E6E4F0E08081918124E630E0EC
:10161000B9010E94B61FCB019C01029FC001039F2C
:10162000900D129F900D1124F701918380830F2E4E
:10163000F8E4EF2EFF24F02D8B81082F10E0E6E474
:10164000F0E08081918124E630E0B9010E94B61F6C
:10165000CB019C01029FC001039F900D129F900D32
:101660001124F7019183808302C081E089838981FD
:1016700029960FB6F894DEBF0FBECDBFCF91DF9194
:101680001F910F91FF90EF900895EF92FF920F93AB
:101690001F93DF93CF93CDB7DEB729970FB6F8949A
:1016A000DEBF0FBECDBF8A836B832C833D834E8309
:1016B0005F83198294E68B81292F281B822F8B83CD
:1016C0008C819D81AE81BF818C3231E0930730E007
:1016D000A30730E0B307E0F006E410E080E094E216
:1016E000A4EFB0E02C813D814E815F81BC01CD0132
:1016F0000E94CA1FDA01C901F80191838083AEE418
:10170000B0E0EEE4F0E08081887F81608C9371C06E
:101710008C819D81AE81BF8188329105A105B10583
:1017200050F106E410E08C819D81AE81BF81880F6D
:10173000991FAA1FBB1F880F991FAA1FBB1F880FC5
:10174000991FAA1FBB1F9C01AD0180E094E2A4EF8A
:10175000B0E0BC01CD010E94CA1FDA01C901F80145
:1017600091838083AEE4B0E0EEE4F0E08081887F96
:1017700082608C933EC08C819D81AE81BF8184301C
:101780009105A105B105A8F106E410E08C819D81C9
:10179000AE81BF81880F991FAA1FBB1F880F991F99
:1017A000AA1FBB1F880F991FAA1FBB1F880F991F55
:1017B000AA1FBB1F880F991FAA1FBB1F880F991F45
:1017C000AA1FBB1F9C01AD0180E094E2A4EFB0E032
:1017D000BC01CD010E94CA1FDA01C901F801918341
:1017E0008083AEE4B0E0EEE4F0E08081887F836047
:1017F0008C938A81282F30E03987288788859985BE
:101800008230910551F1E885F985E330F10509F45D
:1018100042C0288539852130310509F077C00F2E67
:10182000FAE4EF2EFF24F02D8B81082F10E0E6E480
:10183000F0E08081918124E630E0B9010E94B61F7A
:10184000CB01FC010E9FC0010F9F900D1E9F900DBC
:101850001124F701918380835BC00F2EF8E4EF2EF3
:10186000FF24F02D8B81082F10E0E6E4F0E080816A
:10187000918124E630E0B9010E94B61FCB019C01A2
:10188000029FC001039F900D129F900D1124F7013C
:10189000918380833DC00F2EFAE4EF2EFF24F02DBC
:1018A0008B81082F10E0E6E4F0E08081918124E64E
:1018B00030E0B9010E94B61FCB019C01029FC0011C
:1018C000039F900D129F900D1124F7019183808347
:1018D0000F2EF8E4EF2EFF24F02D8B81082F10E05F
:1018E000E6E4F0E08081918124E630E0B9010E94D5
:1018F000B61FCB019C01029FC001039F900D129F58
:10190000900D1124F7019183808302C081E08983C7
:10191000898129960FB6F894DEBF0FBECDBFCF9157
:10192000DF911F910F91FF90EF900895DF93CF9378
:1019300000D000D0CDB7DEB78A8319828A81282FE4
:1019400030E03C832B838B819C8182309105C9F0F0
:101950002B813C812330310519F18B819C818130B1
:101960009105D9F5AFE4B0E0EFE4F0E080818F7B42
:101970008C93AFE4B0E0EFE4F0E080818F778C935C
:101980002EC0AFE4B0E0EFE4F0E080818F7E8C9376
:10199000AFE4B0E0EFE4F0E080818F7D8C931FC076
:1019A000AFE4B0E0EFE4F0E080818F7B8C93AFE4B4
:1019B000B0E0EFE4F0E080818F778C93AFE4B0E0AB
:1019C000EFE4F0E080818F7E8C93AFE4B0E0EFE451
:1019D000F0E080818F7D8C9302C081E089838981D2
:1019E0000F900F900F900F90CF91DF9108951F925D
:1019F0000F920FB60F9211242F933F934F935F9343
:101A00006F937F938F939F93AF93BF93EF93FF93C6
:101A1000DF93CF93CDB7DEB78091700190917101C4
:101A2000009729F0E0917001F09171010995CF9133
:101A3000DF91FF91EF91BF91AF919F918F917F9136
:101A40006F915F914F913F912F910F900FBE0F902B
:101A50001F9018951F920F920FB60F9211242F937B
:101A60003F934F935F936F937F938F939F93AF9326
:101A7000BF93EF93FF93DF93CF93CDB7DEB7809102
:101A8000720190917301009729F0E0917201F09139
:101A900073010995CF91DF91FF91EF91BF91AF91C4
:101AA0009F918F917F916F915F914F913F912F9176
:101AB0000F900FBE0F901F9018951F920F920FB6A8
:101AC0000F9211242F933F934F935F936F937F93C4
:101AD0008F939F93AF93BF93EF93FF93DF93CF9336
:101AE000CDB7DEB78091740190917501009729F010
:101AF000E0917401F09175010995CF91DF91FF910B
:101B0000EF91BF91AF919F918F917F916F915F9175
:101B10004F913F912F910F900FBE0F901F901895EE
:101B20001F920F920FB60F9211242F933F934F9352
:101B30005F936F937F938F939F93AF93BF93EF9335
:101B4000FF93DF93CF93CDB7DEB78091760190916D
:101B50007701009729F0E0917601F09177010995DE
:101B6000CF91DF91FF91EF91BF91AF919F918F91B5
:101B70007F916F915F914F913F912F910F900FBE89
:101B80000F901F9018951F920F920FB60F9211246D
:101B90002F933F934F935F936F937F938F939F9375
:101BA000AF93BF93EF93FF93DF93CF93CDB7DEB7A0
:101BB0008091780190917901009729F0E091780166
:101BC000F09179010995CF91DF91FF91EF91BF914C
:101BD000AF919F918F917F916F915F914F913F91C5
:101BE0002F910F900FBE0F901F9018951F920F927C
:101BF0000FB60F9211242F933F934F935F936F93E0
:101C00007F938F939F93AF93BF93EF93FF93DF9354
:101C1000CF93CDB7DEB780917A0190917B01009789
:101C200029F0E0917A01F0917B010995CF91DF9144
:101C3000FF91EF91BF91AF919F918F917F916F91A4
:101C40005F914F913F912F910F900FBE0F901F907A
:101C500018951F920F920FB60F9211242F933F9356
:101C60004F935F936F937F938F939F93AF93BF93A4
:101C7000EF93FF93DF93CF93CDB7DEB780917C01D5
:101C800090917D01009729F0E0917C01F0917D0118
:101C90000995CF91DF91FF91EF91BF91AF919F9106
:101CA0008F917F916F915F914F913F912F910F9005
:101CB0000FBE0F901F9018951F920F920FB60F92A4
:101CC00011242F933F934F935F936F937F938F9341
:101CD0009F93AF93BF93EF93FF93DF93CF93CDB7D2
:101CE000DEB780917E0190917F01009729F0E0910D
:101CF0007E01F0917F010995CF91DF91FF91EF91E6
:101D0000BF91AF919F918F917F916F915F914F9113
:101D10003F912F910F900FBE0F901F901895DF935A
:101D2000CF93CDB7DEB72F970FB6F894DEBF0FBEB7
:101D3000CDBF9B838A831982EA81FB818081282F12
:101D400030E03F872E878E859F858130910509F48D
:101D500062C02E853F852230310509F4B3C08E85DF
:101D60009F85009709F0E5C0A3E5B0E0E3E5F0E06A
:101D7000808180688C93A3E5B0E0E3E5F0E08081AA
:101D800088608C93EA81FB818181282F30E03D8738
:101D90002C878C859D858130910579F02C853D853A
:101DA0002230310571F08C859D85009771F4EA81B0
:101DB000FB81838180936E010AC087E080936E016E
:101DC00006C086E080936E0102C081E08983EA81CB
:101DD000FB818281282F30E03B872A878A859B857B
:101DE000009731F02A853B852130310549F010C03C
:101DF000A9E5B0E0E9E5F0E080818D7F8C939BC0A0
:101E0000A9E5B0E0E9E5F0E0808182608C9393C0C1
:101E100081E0898390C0AFE4B0E0EFE4F0E080813E
:101E200088608C93AEE4B0E0EEE4F0E080818860FE
:101E30008C93EA81FB818181282F30E039872887C4
:101E4000888599858130910579F0288539852230FA
:101E5000310571F088859985009771F4EA81FB81DD
:101E6000838180936E010AC087E080936E0106C073
:101E700086E080936E0102C081E08983EA81FB8164
:101E80008281282F30E03F832E838E819F810097AF
:101E900031F02E813F812130310549F010C0A9E594
:101EA000B0E0E9E5F0E080818F7E8C9344C0A9E545
:101EB000B0E0E9E5F0E0808180618C933CC081E096
:101EC000898339C0A5E4B0E0E5E4F0E08081806872
:101ED0008C93A5E4B0E0E5E4F0E0808188608C9329
:101EE000EA81FB81838180936F01EA81FB8182819A
:101EF000282F30E03D832C838C819D81009731F029
:101F00002C813D812130310549F010C0A9E5B0E0B8
:101F1000E9E5F0E080818F778C930DC0A9E5B0E012
:101F2000E9E5F0E0808180688C9305C081E08983D9
:101F300002C081E0898389812F960FB6F894DEBFB5
:101F40000FBECDBFCF91DF910895DF93CF9300D027
:101F500000D00F92CDB7DEB79B838A831982EA81C6
:101F6000FB818081282F30E03D832C838C819D81F3
:101F70008130910591F02C813D8122303105B1F005
:101F80008C819D810097D9F4EA81FB8184819581C0
:101F9000909371018093700114C0EA81FB81848168
:101FA000958190937701809376010BC0EA81FB8144
:101FB0008481958190937D0180937C0102C081E0B2
:101FC000898389810F900F900F900F900F90CF9180
:101FD000DF910895DF93CF93CDB7DEB72C970FB67F
:101FE000F894DEBF0FBECDBF8C837E836D831B82D2
:101FF0001A82198280916E01282F30E03C872B874E
:102000008B859C858230910521F12B853C85233081
:10201000310554F48B859C850097B1F02B853C8568
:102020002130310599F021C08B859C858630910542
:10203000B1F02B853C8527303105A1F08B859C853F
:102040008430910549F011C01A8211C081E08A8361
:102050000EC082E08A830BC083E08A8308C084E0DC
:102060008A8305C085E08A8302C081E08B838091EA
:102070006F01282F30E03A87298789859A85833038
:10208000910589F129853A85243031057CF48985CB
:102090009A858130910509F129853A8522303105EB
:1020A000FCF489859A850097B1F02CC029853A8582
:1020B00025303105F1F089859A8585309105B4F098
:1020C00029853A8526303105B9F089859A8587308A
:1020D0009105A9F017C0198217C081E0898314C047
:1020E00082E0898311C083E089830EC084E0898304
:1020F0000BC085E0898308C086E0898305C087E03E
:10210000898302C081E08B838C81282F30E038875F
:102110002F838F81988581309105C1F02F8138857B
:102120002230310521F18F819885009779F5A3E55B
:10213000B0E0E3E5F0E08081982F987F8A81892BD9
:102140008C93ECE5F0E08D81808322C0AEE4B0E0BA
:10215000EEE4F0E08081982F987F8A81892B8C9320
:10216000EAE4F0E08D819E819183808311C0A5E433
:10217000B0E0E5E4F0E08081982F987F8981892B99
:102180008C93E3E4F0E08D81808302C081E08B8357
:102190008B812C960FB6F894DEBF0FBECDBFCF91CA
:1021A000DF910895DF93CF9300D000D0CDB7DEB795
:1021B0008A8319828A81282F30E03C832B838B818C
:1021C0009C818130910519F12B813C8122303105B0
:1021D000C1F18B819C81009709F04CC0A3E5B0E070
:1021E000E3E5F0E080818E7F8C93A3E5B0E0E3E54A
:1021F000F0E080818D7F8C93A3E5B0E0E3E5F0E033
:1022000080818B7F8C93E2E5F0E0108235C0AEE4F4
:10221000B0E0EEE4F0E080818E7F8C93AEE4B0E03D
:10222000EEE4F0E080818D7F8C93AEE4B0E0EEE4EC
:10223000F0E080818B7F8C93ECE4F0E011821082DF
:102240001BC0A5E4B0E0E5E4F0E080818E7F8C93D4
:10225000A5E4B0E0E5E4F0E080818D7F8C93A5E417
:10226000B0E0E5E4F0E080818B7F8C93E4E4F0E083
:10227000108202C081E0898389810F900F900F90B6
:102280000F90CF91DF910895DF93CF9300D000D0CE
:1022900000D0CDB7DEB78A837C836B8319828A81B5
:1022A000282F30E03E832D838D819E8181309105E2
:1022B00089F02D813E8122303105A1F08D819E81F2
:1022C0000097C1F4E8E5F0E080818270EB81FC8149
:1022D000808312C0E8E5F0E080818071EB81FC81B1
:1022E00080830AC0E8E5F0E080818078EB81FC81A2
:1022F000808302C081E08983898126960FB6F89495
:10230000DEBF0FBECDBFCF91DF910895DF93CF9396
:1023100000D000D000D0CDB7DEB78A837C836B833A
:1023200019828A81282F30E03E832D838D819E8102
:102330008130910599F02D813E8122303105B9F02F
:102340008D819E810097E9F4E2E5F0E08081882F9D
:1023500090E0EB81FC819183808315C0ECE4F0E098
:1023600080819181EB81FC81918380830CC0E4E4C6
:10237000F0E08081882F90E0EB81FC819183808365
:1023800002C081E08983898126960FB6F894DEBF6A
:102390000FBECDBFCF91DF910895DF93CF9300D0D3
:1023A00000D000D0CDB7DEB78A837C836B831982DF
:1023B0008A81282F30E03E832D838D819E8181305C
:1023C000910571F02D813E812230310581F08D81A2
:1023D0009E81009789F4E2E5F0E08B8180830EC056
:1023E000ECE4F0E08B819C819183808307C0E4E47E
:1023F000F0E08B81808302C081E089838981269609
:102400000FB6F894DEBF0FBECDBFCF91DF91089518
:10241000DF93CF93CDB7DEB7AAE3B0E0EAE3F0E015
:1024200080818E608C93AAE3B0E0EAE3F0E08081E3
:10243000806F8C9382E00E94291288E20E94291208
:102440008CE00E94291281E00E942912CF91DF9135
:1024500008950F931F93DF93CF93CDB7DEB7C35685
:10246000D0400FB6F894DEBF0FBECDBFFE01ED59D0
:10247000FF4F8083ABE3B0E0EBE3F0E080818D7F42
:102480008C93ABE3B0E0EBE3F0E080818B7F8C9347
:10249000FE01E15AFF4F80E090E0A0E8BFE38083B7
:1024A0009183A283B3838E01055A1F4FFE01E15A27
:1024B000FF4F608171818281938120E030E04AE7A3
:1024C00055E40E941F02DC01CB01F8018083918357
:1024D000A283B383FE01E55AFF4F6081718182813F
:1024E000938120E030E040E85FE30E947903882395
:1024F00044F4FE01E75AFF4F81E090E0918380832E
:1025000064C0FE01E55AFF4F608171818281938131
:1025100020E03FEF4FE757E40E94190318160CF034
:1025200043C0FE01E15AFF4F608171818281938136
:1025300020E030E040E251E40E941F02DC01CB01C8
:102540008E01075A1F4FBC01CD010E944900DC01DA
:10255000CB01F801918380831FC0FE01E95AFF4F30
:1025600080E991E091838083FE01E95AFF4F8081E9
:1025700091810197F1F7FE01E95AFF4F9183808322
:10258000DE01A75ABF4FFE01E75AFF4F80819181BC
:10259000019711969C938E93FE01E75AFF4F80811D
:1025A00091810097D1F627C08E01075A1F4FFE0177
:1025B000E55AFF4F60817181828193810E944900B9
:1025C000DC01CB01F80191838083DE01AB5ABF4F60
:1025D000FE01E75AFF4F808191818D939C93FE010C
:1025E000EB5AFF4F808191810197F1F7FE01EB5A81
:1025F000FF4F91838083ABE3B0E0EBE3F0E08081B9
:1026000088608C93FE01EF5AFF4F80E090E0A0E8D5
:10261000BFE380839183A283B3838E01035B1F4F4B
:10262000FE01EF5AFF4F608171818281938120E02A
:1026300030E04AE755E40E941F02DC01CB01F801BB
:1026400080839183A283B383FE01E35BFF4F6081AC
:1026500071818281938120E030E040E85FE30E9455
:102660007903882344F4FE01E55BFF4F81E090E0AD
:102670009183808364C0FE01E35BFF4F60817181C1
:102680008281938120E03FEF4FE757E40E941903D6
:1026900018160CF043C0FE01EF5AFF4F60817181A4
:1026A0008281938120E030E040E251E40E941F02E9
:1026B000DC01CB018E01055B1F4FBC01CD010E94E7
:1026C0004900DC01CB01F801918380831FC0FE012A
:1026D000E75BFF4F80E991E091838083FE01E75B38
:1026E000FF4F808191810197F1F7FE01E75BFF4F7A
:1026F00091838083DE01A55BBF4FFE01E55BFF4F49
:1027000080819181019711969C938E93FE01E55BE8
:10271000FF4F808191810097D1F627C08E01055B24
:102720001F4FFE01E35BFF4F6081718182819381C6
:102730000E944900DC01CB01F80191838083DE0116
:10274000A95BBF4FFE01E55BFF4F808191818D93B7
:102750009C93FE01E95BFF4F808191810197F1F726
:10276000FE01E95BFF4F91838083ABE3B0E0EBE3D5
:10277000F0E08081982F9F70FE01ED59FF4F80811E
:10278000807F892B8C93FE01ED5BFF4F80E090E012
:10279000A0E8BFE380839183A283B3838E01015CB1
:1027A0001F4FFE01ED5BFF4F60817181828193813C
:1027B00020E030E04AE755E40E941F02DC01CB0133
:1027C000F80180839183A283B383FE01FF96608129
:1027D00071818281938120E030E040E85FE30E94D4
:1027E000790388232CF481E090E09EAF8DAF46C042
:1027F000FE01FF96608171818281938120E03FEF2D
:102800004FE757E40E941903181664F5FE01ED5BCB
:10281000FF4F608171818281938120E030E040E24E
:1028200051E40E941F02DC01CB01BC01CD010E94DA
:102830004900DC01CB019EAF8DAF0FC080E991E074
:102840009CAF8BAF8BAD9CAD0197F1F79CAF8BAF7D
:102850008DAD9EAD01979EAF8DAF8DAD9EAD0097B6
:1028600069F716C0FE01FF966081718182819381B4
:102870000E944900DC01CB019EAF8DAF8DAD9EADB6
:102880009AAF89AF89AD9AAD0197F1F79AAF89AF49
:10289000ABE3B0E0EBE3F0E08081877F8C9380E0F6
:1028A00090E0A0E8BFE38DAB9EABAFABB8AF6DA936
:1028B0007EA98FA998AD20E030E04AE755E40E9458
:1028C0001F02DC01CB0189AB9AABABABBCAB69A9F6
:1028D0007AA98BA99CA920E030E040E85FE30E9440
:1028E000790388232CF481E090E098AB8FA73FC058
:1028F00069A97AA98BA99CA920E03FEF4FE757E48B
:102900000E94190318164CF56DA97EA98FA998ADE0
:1029100020E030E040E251E40E941F02DC01CB01E4
:10292000BC01CD010E944900DC01CB0198AB8FA70F
:102930000FC080E991E09EA78DA78DA59EA5019768
:10294000F1F79EA78DA78FA598A9019798AB8FA7A0
:102950008FA598A9009769F714C069A97AA98BA9CE
:102960009CA90E944900DC01CB0198AB8FA78FA5E1
:1029700098A99CA78BA78BA59CA50197F1F79CA76D
:102980008BA7ABE3B0E0EBE3F0E0808188608C9351
:1029900080E090E0A0E8BFE38FA398A7A9A7BAA71B
:1029A0006FA178A589A59AA520E030E04AE755E413
:1029B0000E941F02DC01CB018BA39CA3ADA3BEA38D
:1029C0006BA17CA18DA19EA120E030E040E85FE3F7
:1029D0000E94790388232CF481E090E09AA389A3D4
:1029E0003FC06BA17CA18DA19EA120E03FEF4FE7EE
:1029F00057E40E94190318164CF56FA178A589A514
:102A00009AA520E030E040E251E40E941F02DC0180
:102A1000CB01BC01CD010E944900DC01CB019AA38E
:102A200089A30FC080E991E098A38F8F8F8D98A123
:102A30000197F1F798A38F8F89A19AA101979AA383
:102A400089A389A19AA1009769F714C06BA17CA101
:102A50008DA19EA10E944900DC01CB019AA389A30C
:102A600089A19AA19E8F8D8F8D8D9E8D0197F1F7F3
:102A70009E8F8D8FABE3B0E0EBE3F0E08081282FF9
:102A80002F70FE01ED59FF4F8081882F90E08295D5
:102A90009295907F9827807F9827822B8C9380E057
:102AA00090E0A0E8BFE3898F9A8FAB8FBC8F698DD0
:102AB0007A8D8B8D9C8D20E030E04AE755E40E94B2
:102AC0001F02DC01CB018D8B9E8BAF8BB88F6D8984
:102AD0007E898F89988D20E030E040E85FE30E9496
:102AE000790388232CF481E090E09C8B8B8B3FC092
:102AF0006D897E898F89988D20E03FEF4FE757E4FD
:102B00000E94190318164CF5698D7A8D8B8D9C8D5A
:102B100020E030E040E251E40E941F02DC01CB01E2
:102B2000BC01CD010E944900DC01CB019C8B8B8B49
:102B30000FC080E991E09A8B898B89899A890197E6
:102B4000F1F79A8B898B8B899C8901979C8B8B8B56
:102B50008B899C89009769F714C06D897E898F895C
:102B6000988D0E944900DC01CB019C8B8B8B8B895B
:102B70009C89988B8F878F8598890197F1F7988B1F
:102B80008F87ABE3B0E0EBE3F0E08081877F8C934D
:102B900080E090E0A0E8BFE38B879C87AD87BE878D
:102BA0006B857C858D859E8520E030E04AE755E485
:102BB0000E941F02DC01CB018F839887A987BA8707
:102BC0006F81788589859A8520E030E040E85FE371
:102BD0000E94790388232CF481E090E09E838D830A
:102BE0003FC06F81788589859A8520E03FEF4FE768
:102BF00057E40E94190318164CF56B857C858D856A
:102C00009E8520E030E040E251E40E941F02DC019A
:102C1000CB01BC01CD010E944900DC01CB019E83A8
:102C20008D830FC080E991E09C838B838B819C8195
:102C30000197F1F79C838B838D819E8101979E8301
:102C40008D838D819E81009769F714C06F8178858F
:102C500089859A850E944900DC01CB019E838D8382
:102C60008D819E819A83898389819A810197F1F769
:102C70009A838983CD59DF4F0FB6F894DEBF0FBE1C
:102C8000CDBFCF91DF911F910F9108950F931F93A7
:102C9000DF93CF93CDB7DEB7C356D0400FB6F894CD
:102CA000DEBF0FBECDBFFE01ED59FF4F8083ABE30A
:102CB000B0E0EBE3F0E0808182608C93ABE3B0E0C6
:102CC000EBE3F0E080818B7F8C93FE01E15AFF4FB4
:102CD00080E090E0A0E8BFE380839183A283B38388
:102CE0008E01055A1F4FFE01E15AFF4F608171812D
:102CF0008281938120E030E04AE755E40E941F0280
:102D0000DC01CB01F80180839183A283B383FE01B0
:102D1000E55AFF4F608171818281938120E030E02C
:102D200040E85FE30E947903882344F4FE01E75AF8
:102D3000FF4F81E090E09183808364C0FE01E55AFB
:102D4000FF4F608171818281938120E03FEF4FE7E7
:102D500057E40E94190318160CF043C0FE01E15A13
:102D6000FF4F608171818281938120E030E040E2F9
:102D700051E40E941F02DC01CB018E01075A1F4F54
:102D8000BC01CD010E944900DC01CB01F801918317
:102D900080831FC0FE01E95AFF4F80E991E09183D3
:102DA0008083FE01E95AFF4F808191810197F1F7FD
:102DB000FE01E95AFF4F91838083DE01A75ABF4F7E
:102DC000FE01E75AFF4F80819181019711969C93F4
:102DD0008E93FE01E75AFF4F808191810097D1F6D3
:102DE00027C08E01075A1F4FFE01E55AFF4F608131
:102DF0007181828193810E944900DC01CB01F8013D
:102E000091838083DE01AB5ABF4FFE01E75AFF4F2B
:102E1000808191818D939C93FE01EB5AFF4F8081BD
:102E200091810197F1F7FE01EB5AFF4F9183808367
:102E3000ABE3B0E0EBE3F0E0808188608C93FE01CF
:102E4000EF5AFF4F80E090E0A0E8BFE380839183DA
:102E5000A283B3838E01035B1F4FFE01EF5AFF4F26
:102E6000608171818281938120E030E04AE755E4FE
:102E70000E941F02DC01CB01F80180839183A283B1
:102E8000B383FE01E35BFF4F608171818281938197
:102E900020E030E040E85FE30E947903882344F4B7
:102EA000FE01E55BFF4F81E090E09183808364C089
:102EB000FE01E35BFF4F608171818281938120E09D
:102EC0003FEF4FE757E40E94190318160CF043C078
:102ED000FE01EF5AFF4F608171818281938120E072
:102EE00030E040E251E40E941F02DC01CB018E0180
:102EF000055B1F4FBC01CD010E944900DC01CB01E5
:102F0000F801918380831FC0FE01E75BFF4F80E9DA
:102F100091E091838083FE01E75BFF4F8081918187
:102F20000197F1F7FE01E75BFF4F91838083DE019C
:102F3000A55BBF4FFE01E55BFF4F8081918101974B
:102F400011969C938E93FE01E55BFF4F80819181EA
:102F50000097D1F627C08E01055B1F4FFE01E35B92
:102F6000FF4F60817181828193810E944900DC0161
:102F7000CB01F80191838083DE01A95BBF4FFE0185
:102F8000E55BFF4F808191818D939C93FE01E95B0E
:102F9000FF4F808191810197F1F7FE01E95BFF4FBF
:102FA00091838083ABE3B0E0EBE3F0E08081982F86
:102FB0009F70FE01ED59FF4F8081807F892B8C939C
:102FC000FE01ED5BFF4F80E090E0A0E8BFE380836F
:102FD0009183A283B3838E01015C1F4FFE01ED5BE1
:102FE000FF4F608171818281938120E030E04AE768
:102FF00055E40E941F02DC01CB01F801808391831C
:10300000A283B383FE01FF966081718182819381E7
:1030100020E030E040E85FE30E94790388232CF44D
:1030200081E090E09EAF8DAF46C0FE01FF966081CB
:1030300071818281938120E03FEF4FE757E40E9446
:103040001903181664F5FE01ED5BFF4F6081718175
:103050008281938120E030E040E251E40E941F022F
:10306000DC01CB01BC01CD010E944900DC01CB0198
:103070009EAF8DAF0FC080E991E09CAF8BAF8BAD61
:103080009CAD0197F1F79CAF8BAF8DAD9EAD0197D5
:103090009EAF8DAF8DAD9EAD009769F716C0FE0156
:1030A000FF9660817181828193810E944900DC01D9
:1030B000CB019EAF8DAF8DAD9EAD9AAF89AF89AD7F
:1030C0009AAD0197F1F79AAF89AFABE3B0E0EBE3CC
:1030D000F0E08081877F8C9380E090E0A0E8BFE300
:1030E0008DAB9EABAFABB8AF6DA97EA98FA998ADE4
:1030F00020E030E04AE755E40E941F02DC01CB01EA
:1031000089AB9AABABABBCAB69A97AA98BA99CA9DB
:1031100020E030E040E85FE30E94790388232CF44C
:1031200081E090E098AB8FA73FC069A97AA98BA9ED
:103130009CA920E03FEF4FE757E40E9419031816BF
:103140004CF56DA97EA98FA998AD20E030E040E252
:1031500051E40E941F02DC01CB01BC01CD010E94A1
:103160004900DC01CB0198AB8FA70FC080E991E04B
:103170009EA78DA78DA59EA50197F1F79EA78DA768
:103180008FA598A9019798AB8FA78FA598A90097AD
:1031900069F714C069A97AA98BA99CA90E94490062
:1031A000DC01CB0198AB8FA78FA598A99CA78BA713
:1031B0008BA59CA50197F1F79CA78BA7ABE3B0E08B
:1031C000EBE3F0E0808188608C9380E090E0A0E801
:1031D000BFE38FA398A7A9A7BAA76FA178A589A5D0
:1031E0009AA520E030E04AE755E40E941F02DC0186
:1031F000CB018BA39CA3ADA3BEA36BA17CA18DA18E
:103200009EA120E030E040E85FE30E94790388233C
:103210002CF481E090E09AA389A33FC06BA17CA12C
:103220008DA19EA120E03FEF4FE757E40E941903D4
:1032300018164CF56FA178A589A59AA520E030E075
:1032400040E251E40E941F02DC01CB01BC01CD0130
:103250000E944900DC01CB019AA389A30FC080E939
:1032600091E098A38F8F8F8D98A10197F1F798A384
:103270008F8F89A19AA101979AA389A389A19AA165
:10328000009769F714C06BA17CA18DA19EA10E943B
:103290004900DC01CB019AA389A389A19AA19E8F41
:1032A0008D8F8D8D9E8D0197F1F79E8F8D8FABE366
:1032B000B0E0EBE3F0E08081282F2F70FE01ED59A4
:1032C000FF4F8081882F90E082959295907F98277C
:1032D000807F9827822B8C9380E090E0A0E8BFE36A
:1032E000898F9A8FAB8FBC8F698D7A8D8B8D9C8DDA
:1032F00020E030E04AE755E40E941F02DC01CB01E8
:103300008D8B9E8BAF8BB88F6D897E898F89988DC1
:1033100020E030E040E85FE30E94790388232CF44A
:1033200081E090E09C8B8B8B3FC06D897E898F897B
:10333000988D20E03FEF4FE757E40E9419031816DD
:103340004CF5698D7A8D8B8D9C8D20E030E040E2CC
:1033500051E40E941F02DC01CB01BC01CD010E949F
:103360004900DC01CB019C8B8B8B0FC080E991E085
:103370009A8B898B89899A890197F1F79A8B898B26
:103380008B899C8901979C8B8B8B8B899C8900975F
:1033900069F714C06D897E898F89988D0E944900D4
:1033A000DC01CB019C8B8B8B8B899C89988B8F87C5
:1033B0008F8598890197F1F7988B8F87ABE3B0E001
:1033C000EBE3F0E08081877F8C9380E090E0A0E8E1
:1033D000BFE38B879C87AD87BE876B857C858D859A
:1033E0009E8520E030E04AE755E40E941F02DC01A0
:1033F000CB018F839887A987BA876F817885898564
:103400009A8520E030E040E85FE30E94790388235A
:103410002CF481E090E09E838D833FC06F8178859E
:1034200089859A8520E03FEF4FE757E40E94190312
:1034300018164CF56B857C858D859E8520E030E0E7
:1034400040E251E40E941F02DC01CB01BC01CD012E
:103450000E944900DC01CB019E838D830FC080E96F
:1034600091E09C838B838B819C810197F1F79C83F6
:103470008B838D819E8101979E838D838D819E811B
:10348000009769F714C06F81788589859A850E94B5
:103490004900DC01CB019E838D838D819E819A83BF
:1034A000898389819A810197F1F79A838983CD591C
:1034B000DF4F0FB6F894DEBF0FBECDBFCF91DF91C7
:1034C0001F910F910895DF93CF9300D0CDB7DEB752
:1034D0009A8389830AC0E981FA8180810E94461615
:1034E00089819A8101969A838983E981FA81808111
:1034F000882389F70F900F90CF91DF910895DF9384
:10350000CF9300D000D00F92CDB7DEB78A836B8304
:103510008A81282F30E03D832C838C819D818130EE
:103520009105C1F02C813D81223031052CF48C8134
:103530009D81009761F019C02C813D8122303105B9
:1035400069F08C819D818330910561F00EC08B8183
:1035500089830BC08B81805C898307C08B81805FEE
:10356000898303C08B81805B8983898180680E9405
:1035700029120F900F900F900F900F90CF91DF9125
:103580000895DF93CF9300D000D0CDB7DEB7898305
:103590006A835C834B8389816A810E947F1A8B8155
:1035A0009C810E94631A0F900F900F900F90CF9103
:1035B000DF910895DF93CF93CDB7DEB763970FB652
:1035C000F894DEBF0FBECDBF688B798B8A8B9B8B47
:1035D000CE0104960B969B838A83198288899989E8
:1035E000AA89BB89BB238CF481E089838889998966
:1035F000AA89BB89B095A095909581959F4FAF4FB3
:10360000BF4F888B998BAA8BBB8BEA81FB81108281
:103610008A819B8101979B838A8388899989AA895A
:10362000BB892AE030E040E050E0BC01CD010E94BF
:10363000EC1FDC01CB01805DEA81FB8180838889FE
:103640009989AA89BB892AE030E040E050E0BC01BA
:10365000CD010E94EC1FDA01C901888B998BAA8BDE
:10366000BB8B88899989AA89BB890097A105B10577
:1036700079F68981882349F08A819B8101979B8310
:103680008A83EA81FB818DE280838A819B810E940B
:10369000631A63960FB6F894DEBF0FBECDBFCF910D
:1036A000DF910895DF93CF93CDB7DEB781E00E941D
:1036B0002912CF91DF910895DF93CF93CDB7DEB775
:1036C0002B970FB6F894DEBF0FBECDBF1982CE0187
:1036D000029698878F83E8E6F1E0FA87E987F3E0BE
:1036E000FB87E985FA85008089859A8501969A8706
:1036F0008987EF81F88500828F8198850196988768
:103700008F839B8591509B87EB85EE2351F782E059
:103710008D8382E08E83CE0102960E946B06982FE5
:103720008981892B8983CE0105960E941008982FE4
:103730008981892B898389812B960FB6F894DEBF06
:103740000FBECDBFCF91DF910895DF93CF930F923E
:10375000CDB7DEB7198283E061E04FEF0E94E60645
:10376000982F8981892B898365E070E080E090E063
:103770000E945D1F83E061E040E00E94E606982F12
:103780008981892B898389810F90CF91DF91089559
:10379000DF93CF93CDB7DEB727970FB6F894DEBF90
:1037A0000FBECDBF9F838E8319821A821B821C821B
:1037B0001D829E012E5F3F4F82E061E0A9010E94C1
:1037C0005508982F8981892B89838A819B81AC81B7
:1037D000BD81BC01CD010E94FD03DC01CB01BC0118
:1037E000CD0126E933E44BE85FE30E941F02DC01D0
:1037F000CB01BC01CD010E944900DC01CB01EE816F
:10380000FF8191838083898127960FB6F894DEBF6C
:103810000FBECDBFCF91DF910895DF93CF93CDB78A
:10382000DEB72E970FB6F894DEBF0FBECDBF8F83E5
:1038300019829E012E5F3F4F3B872A878BE691E0DE
:103840009D878C8793E09E87EC85FD8500802C8585
:103850003D852F5F3F4F3D872C87EA85FB850082A2
:103860002A853B852F5F3F4F3B872A873E85315016
:103870003E878E85882341F71D821E828F81E82F27
:10388000F0E0F987E887288539852230310591F005
:103890008885998583309105A9F0E885F985E1301F
:1038A000F105D9F48CE08B8381E08D8381E08093F6
:1038B000800115C080EC8B8382E08D8381E0809352
:1038C00081010DC08CEC8B8383E08D8381E080933C
:1038D000800181E08093810102C081E08983CE0173
:1038E00002960E946B06982F8981892B8983CE01CD
:1038F00005960E941209982F8981892B89838981D5
:103900002E960FB6F894DEBF0FBECDBFCF91DF91DC
:103910000895DF93CF93CDB7DEB729970FB6F8940C
:10392000DEBF0FBECDBF8C836D831B821A821982CE
:103930008C81282F30E039872887888599858230C7
:10394000910579F0288539852330310579F088850E
:1039500099858130910579F484E08A8388E08983B0
:103960000CC080E48A8380E8898307C084E48A836A
:1039700088E8898302C081E08B838D81282F30E025
:103980003F832E838E819F818130910531F02E817E
:103990003F8122303105A1F026C083E06A814FEFDC
:1039A0000E94E606982F8B81892B8B8383E06981A7
:1039B00040E00E94E606982F8B81892B8B8315C0EF
:1039C00083E06A8140E00E94E606982F8B81892B74
:1039D0008B8383E069814FEF0E94E606982F8B81ED
:1039E000892B8B8302C081E08B838B8129960FB654
:1039F000F894DEBF0FBECDBFCF91DF910895DF9366
:103A0000CF9300D000D00F92CDB7DEB78A836B83FF
:103A100019828A81282F30E03D832C838C819D81FF
:103A200082309105B1F02C813D8123303105E9F0E0
:103A30008C819D818130910521F581E06B8124E6A7
:103A400030E040E050E00E94BC099981892B8983D5
:103A50001AC082E06B8124E630E040E050E00E9432
:103A6000BC099981892B89830EC083E06B8124E690
:103A700030E040E050E00E94BC099981892B8983A5
:103A800002C081E0898389810F900F900F900F9081
:103A90000F90CF91DF910895DF93CF9300D000D0A6
:103AA0000F92CDB7DEB78A836B8319828A81282F64
:103AB00030E03D832C838C819D8182309105B1F073
:103AC0002C813D8123303105E9F08C819D8181304D
:103AD000910521F581E06B8124E630E040E050E083
:103AE0000E94450B9981892B89831AC082E06B81E2
:103AF00024E630E040E050E00E94450B9981892B9C
:103B000089830EC083E06B8124E630E040E050E022
:103B10000E94450B9981892B898302C081E08983AA
:103B200089810F900F900F900F900F90CF91DF91A0
:103B30000895DF93CF9300D000D0CDB7DEB78A834E
:103B400019828A81282F30E03C832B838B819C81D2
:103B50008230910589F02B813C812330310599F029
:103B60008B819C8181309105A9F481E00E94960CA3
:103B70009981892B898310C082E00E94960C9981DB
:103B8000892B898309C083E00E94960C9981892B37
:103B9000898302C081E0898389810F900F900F9003
:103BA0000F90CF91DF910895DF93CF9300D000D095
:103BB00000D0CDB7DEB78A837C836B838A81282FC0
:103BC00030E03E832D838D819E818130910531F0DF
:103BD0002D813E812230310539F00CC08091800169
:103BE000EB81FC81808308C080918101EB81FC81A5
:103BF000808302C081E08983898126960FB6F8947C
:103C0000DEBF0FBECDBFCF91DF910895DF93CF937D
:103C1000CDB7DEB783E00E940D1C80E0CF91DF912D
:103C20000895DF93CF9300D000D00F92CDB7DEB7C9
:103C30008A836B8319828A81282F30E03D832C830D
:103C40008C819D818230910599F12C813D812330B9
:103C5000310554F48C819D81009791F02C813D8138
:103C600021303105A1F077C08C819D818330910591
:103C700081F12C813D812430310509F44BC06BC0AA
:103C800083E00E94991D9981892B898366C083E016
:103C900061E00E94891C982F8981892B898383E0A8
:103CA0006B810E94FF1C982F8981892B898355C0C5
:103CB00083E062E00E94891C982F8981892B898387
:103CC00083E06B810E94FF1C982F8981892B898357
:103CD00044C081E062E00E94891C982F8981892B71
:103CE000898381E06B810E94FF1C982F8981892B39
:103CF000898382E061E00E94891C982F8981892B49
:103D0000898382E06B810E94FF1C982F8981892B17
:103D1000898323C081E061E00E94891C982F8981FA
:103D2000892B898381E06B810E94FF1C982F8981F8
:103D3000892B898382E062E00E94891C982F898107
:103D4000892B898382E06B810E94FF1C982F8981D7
:103D5000892B898302C081E0898389810F900F902C
:103D60000F900F900F90CF91DF910895DF93CF9335
:103D70000F92CDB7DEB719820E94061E89830E947A
:103D80005C1B898389810F90CF91DF910895DF9328
:103D9000CF93CDB7DEB727970FB6F894DEBF0FBE2F
:103DA000CDBF1B821A821D821C8219820E94A51B14
:103DB000982F8B81892B8B83CE0104960E94C81B80
:103DC000982F8B81892B8B838C819D818A319105E2
:103DD00018F481E08A831AC08C819D818931910514
:103DE00028F08C819D818E32910518F08981813077
:103DF00019F482E08A830AC08C819D818D329105FD
:103E000028F08981882311F483E08A838A81282F0E
:103E100030E03F832E838E819F8182309105A9F00F
:103E20002E813F8123303105F9F08E819F818130D1
:103E3000910511F582E063E20E94111E982F8B819B
:103E4000892B8B8381E0898319C083E063E20E9420
:103E5000111E9B81892B8B836DE770E080E090E0E1
:103E60000E945D1F19820AC081E063E20E94111E58
:103E70009B81892B8B8302C081E08B836DE770E08F
:103E800080E090E00E945D1F8B8127960FB6F8942A
:103E9000DEBF0FBECDBFCF91DF910895DF93CF93EB
:103EA000CDB7DEB764EF71E080E090E00E945D1F67
:103EB0000E94B61E0E94C71EFDCFDF93CF93CDB7E1
:103EC000DEB760970FB6F894DEBF0FBECDBF6D872B
:103ED0007E878F87988B8AE791E0A0E0B0E08987A2
:103EE0009A87AB87BC871D821E821F82188628C0D6
:103EF00019821A821B821C820BC089819A81AB8134
:103F0000BC810196A11DB11D89839A83AB83BC83BB
:103F100029813A814B815C8189859A85AB85BC85F5
:103F2000281739074A075B0740F38D819E81AF81CF
:103F3000B8850196A11DB11D8D839E83AF83B8877F
:103F40002D813E814F8158858D859E85AF85B889AD
:103F5000281739074A075B0758F260960FB6F8949E
:103F6000DEBF0FBECDBFCF91DF910895AA1BBB1B53
:103F700051E107C0AA1FBB1FA617B70710F0A61B69
:103F8000B70B881F991F5A95A9F780959095BC018A
:103F9000CD010895A1E21A2EAA1BBB1BFD010DC085
:103FA000AA1FBB1FEE1FFF1FA217B307E407F507E9
:103FB00020F0A21BB30BE40BF50B661F771F881FC5
:103FC000991F1A9469F760957095809590959B015B
:103FD000AC01BD01CF01089597FB092E05260ED037
:103FE00057FD04D0D7DF0AD0001C38F45095409517
:103FF000309521953F4F4F4F5F4F0895F6F79095BD
:104000008095709561957F4F8F4F9F4F08952F92A8
:104010003F924F925F926F927F928F929F92AF9258
:10402000BF92CF92DF92EF92FF920F931F93CF93A5
:10403000DF93CDB7DEB7CA1BDB0B0FB6F894DEBF3C
:104040000FBECDBF09942A88398848885F846E8462
:104050007D848C849B84AA84B984C884DF80EE80AC
:10406000FD800C811B81AA81B981CE0FD11D0FB6B5
:10407000F894DEBF0FBECDBFED010895F894FFCFD9
:10408000000000000000000000010202030303031F
:1040900004040404040404040505050505050505D8
:1040A00005050505050505050606060606060606B8
:1040B00006060606060606060606060606060606A0
:1040C0000606060606060606070707070707070788
:1040D0000707070707070707070707070707070770
:1040E0000707070707070707070707070707070760
:1040F0000707070707070707070707070707070750
:104100000707070707070707080808080808080837
:10411000080808080808080808080808080808081F
:10412000080808080808080808080808080808080F
:1041300008080808080808080808080808080808FF
:1041400008080808080808080808080808080808EF
:1041500008080808080808080808080808080808DF
:1041600008080808080808080808080808080808CF
:1041700008080808080808080808080808080808BF
:0E41800008080808080808080301FF0300FFEC
:00000001FF
